:020000040000fa
:080000000002040000000000f2
:020000040000fa
:04000800ac02000046
:020000040000fa
:04000c00ac02000042
:020000040000fa
:04001000ac0200003e
:020000040000fa
:04001400ac0200003a
:020000040000fa
:04001800ac02000036
:020000040000fa
:04001c00ac02000032
:020000040000fa
:04002000ac0200002e
:020000040000fa
:04002400ac0200002a
:020000040000fa
:04002800ac02000026
:020000040000fa
:04002c00ac02000022
:020000040000fa
:04003000ac0200001e
:020000040000fa
:04003400a211000015
:020000040000fa
:04003800ac02000016
:020000040000fa
:04003c00ac02000012
:020000040000fa
:04004000ac0200000e
:020000040000fa
:04004400ac0200000a
:020000040000fa
:04004800ac02000006
:020000040000fa
:04004c00ac02000002
:020000040000fa
:04005000ac020000fe
:020000040000fa
:04005400ac020000fa
:020000040000fa
:04005800ac020000f6
:020000040000fa
:04005c00ee100000a2
:020000040000fa
:04006000ac020000ee
:020000040000fa
:04006400ac020000ea
:020000040000fa
:04006800ac020000e6
:020000040000fa
:04006c00ac020000e2
:020000040000fa
:04007000ac020000de
:020000040000fa
:04007400ac020000da
:020000040000fa
:04007800ac020000d6
:020000040000fa
:04007c00ac020000d2
:020000040000fa
:04008000ac020000ce
:020000040000fa
:04008400ac020000ca
:020000040000fa
:04008800ac020000c6
:020000040000fa
:04008c00ac020000c2
:020000040000fa
:04009000ac020000be
:020000040000fa
:04009400ac020000ba
:020000040000fa
:04009800ac020000b6
:020000040000fa
:04009c00ac020000b2
:020000040000fa
:0400a000ac020000ae
:020000040000fa
:0400a400ac020000aa
:020000040000fa
:0400a800ac020000a6
:020000040000fa
:0400ac00ac020000a2
:020000040000fa
:0400b000ac0200009e
:020000040000fa
:0400b400ac0200009a
:020000040000fa
:0400b800ac02000096
:020000040000fa
:0400bc00ac02000092
:020000040000fa
:0400c000ac0200008e
:020000040000fa
:0400c400ac0200008a
:020000040000fa
:0400c800ac02000086
:020000040000fa
:0400cc00ac02000082
:020000040000fa
:0400d000ac0200007e
:020000040000fa
:0400d400ac0200007a
:020000040000fa
:0400d800ac02000076
:020000040000fa
:0400dc00ac02000072
:020000040000fa
:0400e000ac0200006e
:020000040000fa
:0400e400ac0200006a
:020000040000fa
:0400e800ac02000066
:020000040000fa
:0400ec00ac02000062
:020000040000fa
:0400f000ac0200005e
:020000040000fa
:0400f400ac0200005a
:020000040000fa
:0400f800ac02000056
:020000040000fa
:0400fc00ac02000052
:020000040000fa
:04010000ac0200004d
:020000040000fa
:04010400ac02000049
:020000040000fa
:04010800ac02000045
:020000040000fa
:04010c00541000008b
:020000040000fa
:04011000ac0200003d
:020000040000fa
:04011400ac02000039
:020000040000fa
:04011800ac02000035
:020000040000fa
:04011c00ac02000031
:020000040000fa
:04012000ac0200002d
:020000040000fa
:04012400ac02000029
:020000040000fa
:04012800ac02000025
:020000040000fa
:04012c00ac02000021
:020000040000fa
:04013000ac0200001d
:020000040000fa
:04013400ac02000019
:020000040000fa
:04013800ac02000015
:020000040000fa
:04013c00ac02000011
:020000040000fa
:04014000ac0200000d
:020000040000fa
:04014400ac02000009
:020000040000fa
:04014800ac02000005
:020000040000fa
:04014c00ac02000001
:020000040000fa
:04015000ac020000fd
:020000040000fa
:04015400ac020000f9
:020000040000fa
:04015800ac020000f5
:020000040000fa
:04015c00ac020000f1
:020000040000fa
:04020800ac02000044
:020000040000fa
:04020c00ac02000040
:020000040000fa
:04021000ac0200003c
:020000040000fa
:04021400ac02000038
:020000040000fa
:04021800ac02000034
:020000040000fa
:04021c00ac02000030
:020000040000fa
:04022000ac0200002c
:020000040000fa
:04022400ac02000028
:020000040000fa
:04022800ac02000024
:020000040000fa
:04022c00ac02000020
:020000040000fa
:04023000ac0200001c
:020000040000fa
:04023400ac02000018
:020000040000fa
:04023800ac02000014
:020000040000fa
:04023c00ac02000010
:020000040000fa
:04024000ac0200000c
:020000040000fa
:04024400ac02000008
:020000040000fa
:04024800ac02000004
:020000040000fa
:04024c00ac02000000
:020000040000fa
:04025000ac020000fc
:020000040000fa
:04025400ac020000f8
:020000040000fa
:04025800ac020000f4
:020000040000fa
:04025c00ac020000f0
:020000040000fa
:04026000ac020000ec
:020000040000fa
:04026400ac020000e8
:020000040000fa
:04026800ac020000e4
:020000040000fa
:04026c00ac020000e0
:020000040000fa
:04027000ac020000dc
:020000040000fa
:04027400ac020000d8
:020000040000fa
:04027800ac020000d4
:020000040000fa
:04027c00ac020000d0
:020000040000fa
:04028000ac020000cc
:020000040000fa
:04028400ac020000c8
:020000040000fa
:04028800ac020000c4
:020000040000fa
:04028c00ac020000c0
:020000040000fa
:04029000ac020000bc
:020000040000fa
:04029400ac020000b8
:020000040000fa
:04029800ac020000b4
:020000040000fa
:04029c00ac020000b0
:020000040000fa
:0402a000ac020000ac
:020000040000fa
:0402a400ac020000a8
:020000040000fa
:0402a800ac020000a4
:020000040000fa
:0402ac00ac020000a0
:020000040000fa
:0402b000ac0200009c
:020000040000fa
:0402b400ac02000098
:020000040000fa
:0402b800ac02000094
:020000040000fa
:0402bc00ac02000090
:020000040000fa
:0402c000ac0200008c
:020000040000fa
:0402c400ac02000088
:020000040000fa
:0402c800ac02000084
:020000040000fa
:0402cc00ac02000080
:020000040000fa
:0402d000ac0200007c
:020000040000fa
:0402d400ac02000078
:020000040000fa
:0402d800ac02000074
:020000040000fa
:0402dc00ac02000070
:020000040000fa
:0402e000ac0200006c
:020000040000fa
:0402e400ac02000068
:020000040000fa
:0402e800ac02000064
:020000040000fa
:0402ec00ac02000060
:020000040000fa
:0402f000ac0200005c
:020000040000fa
:0402f400ac02000058
:020000040000fa
:0402f800ac02000054
:020000040000fa
:0402fc00ac02000050
:020000040000fa
:04030000ac0200004b
:020000040000fa
:04030400ac02000047
:020000040000fa
:04030800ac02000043
:020000040000fa
:04030c00ac0200003f
:020000040000fa
:04031000ac0200003b
:020000040000fa
:04031400ac02000037
:020000040000fa
:04031800ac02000033
:020000040000fa
:04031c00ac0200002f
:020000040000fa
:04032000ac0200002b
:020000040000fa
:04032400ac02000027
:020000040000fa
:04032800ac02000023
:020000040000fa
:04032c00ac0200001f
:020000040000fa
:04033000ac0200001b
:020000040000fa
:04033400ac02000017
:020000040000fa
:04033800ac02000013
:020000040000fa
:04033c00ac0200000f
:020000040000fa
:04034000ac0200000b
:020000040000fa
:04034400ac02000007
:020000040000fa
:04034800ac02000003
:020000040000fa
:04034c00ac020000ff
:020000040000fa
:04035000ac020000fb
:020000040000fa
:04035400ac020000f7
:020000040000fa
:04035800ac020000f3
:020000040000fa
:04035c00ac020000ef
:020000040000fa
:100400000f9f20000ebf20000e018800000000009a
:10041000000020000000e000020032000001200087
:10042000200288000c00070000af2100010020001e
:1004300011000700000020000000e0000200320070
:100440000000020000000000041c02000000000088
:100450000040da000000fe004440a900c015200062
:100460000000e0000300320000002000a00188002e
:100470004440a80000000600910188008000780038
:100480000000eb0015003700e280400032a0b4000d
:100490009101ba00e280400032a0b4009102ba009b
:1004a000e280400032a0b4000002eb00472bde00e7
:1004b000f507b200602ce10004003a000059eb009f
:1004c0008301e900fdff3e00040037006128e100e0
:1004d000010032000082eb000b00070011c3ba00dc
:1004e0001101ba000604e00003003a000200e00037
:1004f000e5ff3a0000000600f607b200960188000a
:1005000082007800f5ff37003159ba008301e90015
:100510000c0032002159ba008301e90008003200c2
:100520000400e00003003a00e280400032a0b40082
:10053000f5ff370011d9ba008301e900faff3a004c
:100540008100e800e180400032a0b4000000060015
:1005500000000000000000000040da000000fe0083
:100560001400200005003700f4ff2f0003003700bf
:100570004f89de00820178001b003700889fbe0093
:100580008a9fbe00841f78007c0007004f0078001f
:1005900011003300f0ff2f00838f6c0006003b003a
:1005a000040565000a00a7000800370009f0a6004e
:1005b0001000200008003700820f5400838f5c0079
:1005c000030039001000200001003e000000200060
:1005d00009f0a7000000ea004f05be004f04be006e
:1005e0000000e00000000600881f78000304780087
:1005f0000300e00007003d0060001000e0801800ec
:1006000060011900e081190002003b0001f02d009b
:10061000030037000400070008f0a70001f0a00065
:100620004f04780000000600889fbe008a9fbe002d
:100630000082700004027100048271002600320002
:100640000004be000200be006011b8006b0920006b
:10065000950220000182cf000a0039000541b10057
:100660000082cf00070039000541b1000982cf00a8
:10067000040039000541b1000882cf0001003900b3
:100680000541b10005425200120032000a003b0051
:1006900082817100610164008100d1000080d3007b
:1006a0008984d3000884d3008b05e8000442e80065
:1006b000f7ff3a00070037000804440089844c0023
:1006c00000004800818048008b05e9000442e900f1
:1006d000f9ff3a00030007004f05be004f04be00bb
:1006e0000000060081002000618055000b003d00e5
:1006f0000b00200061fe2f000100e1001d0034000e
:1007000082817100610164008904d1000884d300f2
:100710000000e800faff3a00710020006100640068
:100720000300700002006000090032006104440010
:10073000e0844c000988a500050032008b05e80024
:100740006808e10002003a008904d1000884d3005f
:10075000f20f20000258e10005003d00c75ddd00fa
:10076000f907b200898075000800780000000600d3
:100770000bf827008b007800000005000004be0085
:10078000060007000003be000405be000200be0014
:1007900002000700844f750000000600c70ade0053
:1007a000f107b200f50fb20008003200e1cf4200bd
:1007b000020032000170a00024000500810f7000cb
:1007c000010032000408050044000500810f70009c
:1007d00002003a00140005008502e9000000400014
:1007e00081c04800fcff3b000170a0002400050010
:1007f0008001780002003700b15978000201e90059
:100800000200e000fcff3a000000060080017800d2
:1008100002003700815978000201e9000200e0007f
:10082000fcff3a0000000600881f780002047800f0
:1008300008017800eeff0700080040004f04780030
:10084000000006000000fa00881f7800000478000d
:10085000ea8157003fb997008800780040412000a6
:10086000070007000000e000020035008040eb00b8
:10087000017478004f0478000080fa000000060040
:100880006200fa00889fbe008a1f78000005780089
:1008900081047800020478008300780080f92f003a
:1008a0000f004000a70307009a979f00a9979f0099
:1008b0000000eb00b09f9f001885fb008a04fb003e
:1008c0000a05ea004f55de0050022000808f5400d8
:1008d0000d003200e10f55000b003a000a017800cc
:1008e000880078002f9097009f91970003000100e7
:1008f000a0979f000000e0008e0032003f98970014
:100900000000e800b09f9f000a044400500220004d
:10091000808f5400040032000900e000e6ff3a0036
:100920003f989700840037000000eb00909f9f00e5
:10093000809f9f00f0979f00e0979f00d0979f00b7
:10094000c0979f0007003700a19e200001005000c3
:1009500000004000e19d200061007800df989700d2
:1009600001007000d09f9f0088047800090478007f
:10097000384578008a00fb00a09e20007a0107001d
:100980000000e000f0ff3a00a1c2b300814f550023
:100990000e003a00cf8897000180e900c08f9f00c9
:1009a00010007800c09f9f000000e00005003d009f
:1009b0000000ea00c09f9f005f9897000020a00001
:1009c000d09f9f000904e8000f003700c09f9f00e0
:1009d0000000eb0005003700f2ff2700820f5000f7
:1009e000020032006a01b900028040000904780068
:1009f00088047800b900fb000103b100e98f5000c2
:100a0000f5ff3600c09f9f00e0c2b300984f100072
:100a1000020032000080eb0019003700a0c2b300d2
:100a2000d84f100007003a00cf8897000180e900f6
:100a3000c08f9f0010007800a09f9f000804e8006e
:100a4000100037000000eb00a09f9f008800780096
:100a500005003700f3ff2700830f5000020032002b
:100a60006a02b9000400410001047800880078009f
:100a70003101fb000203b100e90f5100f5ff360020
:100a8000a09f9f00984478008900fb00609d200093
:100a9000350107000000e000020032000804e80011
:100aa000010037008044eb00c97f9f0080c6b3007f
:100ab00080cf540004003a0098cf14000a003a0096
:100ac0006640500006003700c0c6b30080cf540017
:100ad00005003a0098cf140003003a00654040003a
:100ae000c07f9f000804e8001801fb00e3fb2f0013
:100af0008f81410081f92f008f804000a0f92f00e5
:100b00000f004000100007000000e00009003a005c
:100b1000e1fb2f008f804000a0f92f000f00400064
:100b20004c0207000000e000020035000804e80065
:100b300061ff37000080eb004f0578004f04be00d6
:100b40000080fa0000000600881f7800e4c6b300a9
:100b5000844f5100b600320010003c006b4252003e
:100b6000844f51001800320005003c0054c2b3000d
:100b7000844f5100ee00320084c5b3000f003700ef
:100b800044c6b300844f5100140032006542420055
:100b9000844f5100e9003a001000370004c7b30049
:100ba000844f5100d50032005300350065424200a9
:100bb000844f51005000320063424200844f510084
:100bc000de003a004c0037001181e900820878000d
:100bd000f000900012417800d600370020629000ab
:100be000c5c6b300854f520007003a009102780055
:100bf00064825200840878001402be004fabde000d
:100c0000860378001100370015c7b300854f5200e6
:100c100003003200a5c6b300854f520006003a001b
:100c20009102780068825200840878005403be0064
:100c30004402be00050037001182e90084087800f4
:100c400014027800cfa2de00612bb9000498be0028
:100c50000690be00a060900088c6b30088cf500008
:100c60000d00320028c6b30088cf500004003a00bf
:100c70000402fb00cfa2de00612bb90008003700a0
:100c800048c7b30088cf50000300320066444400d8
:100c900088cf500004003a00cfa2de00612bb900db
:100ca0000498be000690be003002be002003be00c5
:100cb000f0009000e00f5200e08f5a00e00f5b0060
:100cc000e08f5b0002003d00d4c2b3000800370093
:100cd000001290000418a30002003200b4c2b30056
:100ce000030037000408a3004c00320004c2b30024
:100cf00084f178004700370020629000c5c6b30039
:100d0000854f520006003a0091027800648252003a
:100d1000840878001402be006033b8001100370068
:100d200015c7b300854f520003003200a5c6b300bb
:100d3000854f520006003a00910278006882520006
:100d4000840878005403be004402be00050037004a
:100d50001182e90084087800140278008002eb0018
:100d60006033b8000498be000690be00a0609000fa
:100d700088c6b30088cf50000d00320028c6b300eb
:100d800088cf500004003a000482fb008002eb0090
:100d90006033b8000800370048c7b30088cf500060
:100da000030032006644440088cf500004003a003b
:100db0008002eb006033b8000498be000690be00cd
:100dc000801090000138a300140032003002be00f1
:100dd0002003be00e00f5200e08f5a00e00f5b00de
:100de000e08f5b000d00320081c7b300814f5100de
:100df0000300320081c5b300814f510007003a0063
:100e0000f000900004c3b30084f178008100e80092
:100e100082f178008100e80071009800f0009000f5
:100e20008181410063009800824078003e003700d5
:100e3000a0619000c4c6b3001181e90084cf5100c5
:100e4000220032000a003c006442520084cf51006c
:100e50002500320004c2e80084cf510013003200a4
:100e60006842520084cf51001e003a000a00370049
:100e700044c7b30084cf51001b00320066424200d9
:100e800084cf5100180032006942520084cf5100d3
:100e900014003a00050037008208780092007800bc
:100ea00040589000804878002c0037008208780075
:100eb00092007800600a9000cfa2de00612bb9009a
:100ec0008498be008690be00240037008208780017
:100ed0009200780060099000cf91de008288be0009
:100ee0001e0037001181e900820878009200780026
:100ef0006008900080087800180037001181e90030
:100f00008208780012027800cfa2de00612bb900bf
:100f10000498be000690be00f00090008181410060
:100f20006300980081c7b3001b0007000b00370067
:100f3000f000900082f1780006003700f000900089
:100f4000818141000204e00001003a0052c2b30076
:100f5000824978008100e800710098000000eb00f1
:100f60004f04780000000600020037000304e00090
:100f7000060032000001780002007800b0417800dd
:100f800081cf5100f9ff3a00010037000001eb006a
:100f90000200780000000600fc874700889fbe0022
:100fa0008a9fbe008c9fbe008e1f780000067800ce
:100fb00080c5b30080cf50000a0032007740400067
:100fc00080cf50000a0032006940400080cf5000be
:100fd0000b003200509c200080bf9f00ae0020001c
:100fe0000a003700429b200082bf9f0006003700a6
:100ff000539c200083bf9f008e0020000300370019
:10100000549c200084bf9f000e0120003c02be00c3
:101010002c03be000605be000404be0040c6b3009b
:1010200080cf5000030032006540400080cf500068
:101030000b003a00e00f5200e08f5a00e00f5b0017
:10104000e08f5b0006003d006000b8006011b80052
:10105000040450008584580006055900878559000e
:10106000e80f57000400320040002000f00f570046
:1010700038003a000100370030002000e00f540033
:10108000e08f5c00e00f5d00e08f5d0004003a003f
:10109000dc0890008d0120000100e0000600320015
:1010a0008e00e900888060008fba9700e5c0780064
:1010b000f1ef9f007d012000800078008100e900b1
:1010c000050033008b05d1000a85d3008984d30045
:1010d0000884d300f9ff3700089ebe000a96be00c0
:1010e000120037008d06e9008e00e9008480600060
:1010f0000fb99700e2c1780082fd2f000f01410077
:1011000003f17e00800078008100e90005003300d3
:101110008783d1000683d3008582d3000482d30065
:10112000f9ff3700049ebe000696be003c02be00da
:101130002c03be00e00f5200e08f5a00e00f5b006e
:10114000e08f5b008b0034000d00e000e5ff3c0009
:10115000880037002c60900081c6b300814f50009a
:101160000b00320006003c000004e00008003200e2
:10117000e6c05000814f50004e003a000400370096
:10118000c1c6b300814f50004a003a002100370029
:101190000800e00004003a005c0890008d01200087
:1011a0000000e00006003200110009000e84d800a3
:1011b0000fb99700e2c07800f1ef9f007d01200099
:1011c000110009000e84d8000a0037001100090040
:1011d0000e04d8008d06e9000e81b9000204540007
:1011e0008fb8970061417c0081fd2f008f80400007
:1011f00082f07e00000478000800e0000200320067
:101200000d00e000f1ff3c00cfc4de00614db900ed
:1012100025003700e00f5400e08f5c0004003a0026
:101220005c0890008d0120000000e0000700320003
:101230006171b9000800be00630107008fb9970013
:10124000e3417800f3ef9f007d0120006171b90058
:101250000800be004c0107000b0037006171b900a7
:101260000800be00390107008d06e90000f1b90051
:10127000020454000fba9700e4427c0084fd2f0062
:101280000f02420005f27e000004be00e00f500095
:10129000e08f5800020032000d00e000efff3c003c
:1012a0004fcdde008a057800089ebe000a96be007b
:1012b00030003700e00f5400e08f5c00e00f5d006d
:1012c000e08f5d0004003a005c0890008d01200072
:1012d0000000e000090032006172b900612bb90022
:1012e0000800be000a01be00da0107000fba97002d
:1012f00064427800f4ef9f007d0120006172b90024
:10130000612bb9000800be000a01be00ca01070037
:101310000d0037006172b900612bb9000800be00f2
:101320000a01be00cf0107008d06e90000f2b900f6
:10133000040454008fba970065427c0085fd2f009d
:101340008f82420084f27e00009ebe000296be00a4
:101350003c04be002c05be00e00f5400e08f5c0092
:10136000e00f5d00e08f5d00020034000d00e00042
:10137000e8ff3c00e80f570010003a000c10900006
:101380000038a3000d003200f78f560006003e0023
:1013900085fd2f008f824200e5c07e0000c3b300b0
:1013a00080cf5000050032008d06e90002c3b30073
:1013b00081fd2f008f80400082f07e007881160032
:1013c000120e98006c00900083fd2f008f81410069
:1013d0008d80410006fd07001c089000dc0890008d
:1013e000810f500006003d0000805000000e980064
:1013f0000c1090000040a100001698000f0037006c
:101400000100e0000d003d008c109000f4806000b1
:10141000f08f500009003a007c099000fc00900019
:10142000810051000c099000828050000080500023
:101430004240a90001003400000e98004f077800d8
:101440004f06be004f05be004f04be00cf01b100e5
:10145000000006000400fa00889fbe008a9fbe00bc
:101460008c1f78000004780001067800f80d9000c9
:101470007800900080855500080890008085550010
:101480001808900080855500280890008085550038
:1014900038089000808555004808900080855500e8
:1014a0000002220090bf9f0000032300a0bf9f0006
:1014b000081090000028a30015003a000b00e0007f
:1014c000130034000b0578008a047800e20f550001
:1014d0000100360029002000c801900009017800b1
:1014e000ee8057005800900003000100500498005f
:1014f0000000e0008c003200680890000900400005
:10150000600c9800090555004240a900eeff3c0020
:10151000780190000200e0000c003400c801900047
:101520008c007800580090000300010050049800df
:101530008080eb000000e0007c003200e8089000b2
:101540007800900000804000600c9800880c9000ab
:101550000900e0001100340009057800e28f540012
:10156000010036002a002000c80190000a0178001e
:10157000ec805700580090000300010050049800d0
:101580000000e00068003200680890000a00400097
:10159000600c98008a845400edff37001809900011
:1015a0000200e0000c003400c8019000e800900048
:1015b0005800900003000100500498008080eb0068
:1015c0000000e00059003200e80890001808900080
:1015d00000804000600c9800a80c90000900e0001a
:1015e0001100340009057800e28f54000100360034
:1015f0002a002000c80190000a017800ec80570002
:101600005800900003000100500498000000e00022
:1016100045003200680890000a004000600c980005
:101620008a845400edff3700380990000200e00082
:101630000e003400e8009000180890008080400000
:10164000c801900058009000030001005004980069
:101650008080eb000000e00034003200e8089000d9
:101660003808900000804000600c9800c80c900082
:101670000900e0001100340009057800e28f5400f1
:10168000010036002a002000c80190000a017800fd
:10169000ec805700580090000300010050049800af
:1016a0000000e00020003200680890000a004000be
:1016b000600c98008a845400edff370008109000f9
:1016c0008000eb000028a300180032000b00e000af
:1016d000160034008b04780009057800e28f54006e
:1016e000010036002a002000c80190000a0178009d
:1016f000ee8057005800900003000100500498004d
:101700000000e00008003200680890000a00400075
:10171000600c98008a8454004240a900eeff3c000f
:101720008000eb00010037008080eb0001007800b2
:101730004f0678004f05be004f04be000080fa003f
:10174000000006000108780000000600839f680082
:101750000100e00002003d0060001000e080180081
:101760000300e00002003d0060011100e08119006b
:10177000050007004f00e00002003b006000100081
:10178000e0801800000006006022b8000602200079
:101790000000d0008180d2000482d2008582d20075
:1017a0000000a0000202520083825a0003003100b0
:1017b0000202420083824a000000a1000603e90001
:1017c000f3ff3a0000000600efff07000400be0030
:1017d00000000600889fbe008a9fbe0030044200c1
:1017e000b0844a0030054b0090854b006000b1008a
:1017f0000898be000a90be000440e10005c8e10060
:1018000006d0e10007d8e100020031006800400086
:101810001008e8004f05be004f04be00000006009f
:10182000889fbe008a9fbe003004be002005be0017
:101830000418540005985c0006185d0007985d00c8
:10184000110020000440e10005c8e10006d0e100dd
:1018500007d8e100010039008000eb00108810007b
:101860004f05be004f04be00000006001200fa0043
:10187000889fbe008a9fbe008c9fbe00e0b79f007d
:10188000f1b79f0082bf9f0093bf9f000605be0077
:101890000404be000000eb00d0b79f00c0b79f005b
:1018a000b0b79f00a0b79f0090b79f000006eb0065
:1018b0005fb19700cfb09700820141003fb0970021
:1018c0000200e00004003d00370007007e80570062
:1018d000c0ff070003003700330007007e80570079
:1018e000cfff0700dfb697000d00e0000c003500c9
:1018f0006fb29700ffb297000fbb97009fbb970096
:1019000010002000010020006011b80000027200e9
:101910008182720002037300838373001b0007003f
:101920000c06e80001042000810f5600e0ff3a0099
:101930000d00e00004003d000802be000a03be00e6
:101940007e805700a3ff07005fa897000000e0001b
:1019500005003a001fb29700afb297003fb397005f
:10196000cfb39700090007006fb09700ffb0970052
:101970000fb997009fb997004f06be004f05be00f4
:101980004f04be000080fa000000060001000700be
:1019900000000600a4b79f00b5b79f00c6b79f0020
:1019a000d7b79f00000006004f09de00828171005a
:1019b000b3b79f004f01de0081804000828070003d
:1019c000a1b79f008fb097004f09de0000004000d4
:1019d0000200700090b79f007fa897004f01de00c3
:1019e000818040008280700081b79f000d00070059
:1019f0004f3ade000000400004007000f0af9f008e
:101a0000080007000402420085824a0006034b00da
:101a100087834b00dfff07000802be000a03be00f9
:101a2000000006002fb29700bfb297004fb3970097
:101a3000dfb3970000000600881f78001800200020
:101a4000881f780089ff07008f87e9004f0478001e
:101a500000000600801feb0084ff07008f87e9006d
:101a600000000600889fbe008a9fbe00e00f500065
:101a7000e08f5800e00f5900e08f59000c003d0046
:101a80006044b8006055b8000000540081805c00dc
:101a900002015d0083815d00180020001500070031
:101aa00008003d00180007000004eb0005003700a7
:101ab0000004eb000f00070002003d0012000700c9
:101ac00018002000dcff07000800e00006003200dc
:101ad0006022b8006033b8000000520081805a00d4
:101ae00002015b0083815b004f05be004f04be0016
:101af00000000600e00f5200e08f5a00e00f5b008c
:101b0000e08f5b00000006006044b8006055b8003c
:101b10000402540085825c0006035d0087835d003b
:101b200000000600889fbe008a9fbe008c1f7800c0
:101b3000e00f5000e08f5800e00f5900e08f59008f
:101b40000d003d006044b8006055b800000054002e
:101b500081805c0002015d0083815d001c0020002b
:101b60000820e10009a8e1000ab0e1000bb8e1009b
:101b70000d003d00080037000006eb00e00f5200aa
:101b8000e08f5a00e00f5b00e08f5b0006003d0035
:101b90006044b8006055b8000402540085825c00bf
:101ba00006035d0087835d00aaff07000c00e000cc
:101bb000060032006022b8006033b8000000520016
:101bc00081805a0002015b0083815b004f06780030
:0c1bd0004f05be004f04be0000000600e0
:020000040000fa
:101bdc0044430000205600006f6c0000746100004c
:101bec00676500003a2000002025000033640000e7
:101bfc00004200006174000074720000795600000d
:101c0c006f6c0000743a000025640000256400002d
:101c1c002e2500006425000064200000004f000009
:101c2c005645000052200000544500004d50000065
:101c3c004552000041540000555200004500000080
:101c4c0020200000202000005348000055540000c4
:101c5c00204400004f5700004e20000020200000c0
:101c6c000020000020200000204f000056450000fe
:101c7c00522000004c4f0000414400002020000086
:101c8c002000000020200000202000002020000068
:101c9c00204f00004e2000002020000020200000db
:101cac002020000000200000202000004d410000fa
:101cbc00494e0000532000004f4e00002020000031
:101ccc0020200000200000002020000020490000ff
:101cdc004e560000455200005445000052200000b2
:101cec004f4600004620000000200000202000008d
:101cfc004d410000494e0000532000002020000000
:101d0c004f4600004620000020000000202000006c
:101d1c00494e000056450000525400004552000048
:101d2c00202000004f4e000020200000002000006a
:101d3c0020530000484f0000525400002043000084
:101d4c004952000043550000495400002020000077
:101d5c002000000020200000202000002020000097
:101d6c002020000020200000202000002020000067
:101d7c0020200000004200004154000054450000a7
:101d8c0052590000205600004f4c000054410000f6
:101d9c00474500002000000044450000455000006d
:101dac002044000049530000434800004152000009
:101dbc00474500002020000000200000204c0000bf
:101dcc004f570000202000004241000054540000f6
:101ddc004552000059200000200000005245000030
:101dec0044550000434500002054000048450000c5
:101dfc00204c00004f410000442000000020000057
:101e0c00202000002020000042410000545400001b
:101e1c004552000059200000202000002000000046
:101e2c00202000004f5600004552000020560000b4
:101e3c004f4c00005441000047450000202000009a
:101e4c00004900004e5600004d4100005820000093
:101e5c0031340000353000005641000020200000d5
:101e6c002000000044590000544500004348000085
:101e7c0020200000504f0000574500005220000069
:081e8c0020200000000000000e
:020000040000fa
:101e94001400fa00000f9800110f98000000eb00e6
:101ea400100798008e089000000820000100b80078
:101eb40020079800310798002e009000be00900083
:101ec4004008de00000f7800ae0090004107980043
:101ed4004e0090000000e0001b003a001e00780055
:101ee4008000400000802000008040001000780046
:101ef400800078001e089000110098000102200064
:101f04001e8f4000f00720009e007800808f500054
:101f14000200360001f82f001e8f40001e007800da
:101f24008000400000802000008040001000780005
:101f3400800078001e08900001087800100020003e
:101f440010079800540037001e00780080004000fd
:101f54000080200000804000900078005107980025
:101f64001e0fe800f00720009e007800808f5000cc
:101f74000200360001f82f001e8f40001e0078007a
:101f84008000400000802000008040009000780025
:101f940061079800ee0090005e0090000080500001
:101fa40070079800fe0090004e0090000180b80079
:101fb40020079800310798002e009000be00900082
:101fc4004008de00800078005e0090000080400041
:101fd400800078001e089000110098009e00780090
:101fe4007f8f4000f00720009e007800808f500013
:101ff4000200360001f82f001e8f40001e007800fa
:1020040080004000008020000080400090007800a4
:10201400510798001e0fe800f00720009e0078008a
:10202400808f50000200360001f82f001e8f400000
:102034001e007800800040000080200000804000e6
:102044009000780061079800ee0090005e00900018
:102054000080500070079800fe0090004e00900031
:102064000180b80020079800310798002e009000e6
:10207400be0090004008de00800078005e00900002
:1020840000804000800078001e089000010878005d
:1020940020002000100798001e0090000080fa0025
:1020a400000006003600f800809fbe00829fbe003c
:1020b400849fbe00869fbe002200f8002400f80022
:1020c4002600f8002800f8002a00f8002c00f80088
:1020d4000000fa00604880000000e00004003a00bc
:1020e400d621ef00d821ef000029ef0015003700ba
:1020f40010488000715d20000180b9004109dd00b5
:102104004f00de0000007100cf88de000000780080
:10211400b00e880020488000715d20000180b90065
:102124004109dd004f00de0000007100cf88de00b1
:1021340000007800c00e8800004880007014b000d1
:1021440000488800004880000192200050ff0700ea
:1021540011498000604880000180b9004109dd0018
:102164004f00de0000007100cf88de000000780020
:102174004048880040488000f1ff2700008050005c
:102184000000d1001048880040488000800078009a
:10219400f0ff2700008040000000d10020488800a4
:1021a4008b20a9000080fa002c00f9002a00f90015
:1021b4002800f9002600f9002400f9002200f900a3
:1021c4004f03be004f02be004f01be004f00be00d1
:1021d4003600f900004006003600f800809fbe007b
:1021e400821f78000000fa00001880007048880000
:1021f40010188000804888002018800090488800cb
:1022040030188000a0488800b14b800070488000de
:1022140000804000b04b8800a04b80000000e80024
:10222400a04b8800a04b8000ff0f50000500340035
:10223400b04b80004580de00b04888007429ef0070
:102244007629ef00c14b8000804880000080400068
:10225400c04b8800e04b80000000e800e04b8800a1
:10226400e04b8000ff0f500005003400c04b80009d
:102274004580de00c04888007c29ef007829ef0003
:10228400d14b8000a048800000804000d04b8800e3
:10229400f04b80000000e800f04b8800f14b800018
:1022a40010032000808f500008003400d14b8000c0
:1022b4002003200000017800110009008200d800ea
:1022c400a04a88007e29ef007a29ef00b0488000f8
:1022d400f11f24000180b9004109dd004f00de0038
:1022e40000007100cf88de000000780020498800db
:1022f4002049800030498800314980008014200042
:10230400808f500002003c00801420003049880077
:10231400c04880004500dd0040498800a04a800094
:102324004500dd00b04a880085a0a9000080fa00bd
:102334004f0178004f00be003600f900004006004f
:102344003600f800809fbe00829fbe00849fbe00be
:10235400869fbe00881f78002200f8002400f80041
:102364002600f8002800f8002a00f8002c00f800e5
:102374000400fa00501680004300de006140600053
:102384000080fb00610060004300dd0062168000f5
:1023940071ff2f0081006100010070006016880049
:1023a400501680004500de00614060000080fb00a4
:1023b400804b8800501680004200de0061406000bf
:1023c4000080fb00904b880060168000680060006d
:1023d4000000e00014003a00904b80000000e00090
:1023e40011003a00304880000000e0002d003a005f
:1023f400204b80000000e00023003a00704b800076
:102404000000e00022003a00804c80000000e00060
:1024140021003a00104c80000000e00020003a0047
:10242400cce2a8001f003700cce2a9000629ef0087
:102434003429ef004029ef005029ef006c29ef0008
:102444004229ef005229ef006229ef006e29ef00c4
:102454004c29ef008029ef005a29ef005829ef009a
:102464008429ef003629ef008229ef008629ef0046
:102474009429ef008e29ef009029ef008a29ef00bc
:102484009229ef0007003700000000000500370024
:1024940000000000030037000000000001003700c6
:1024a40000000000204a8000e10f50000b003a00b9
:1024b400404b80000000e800404b8800414b800006
:1024c40030062000808f50000500340010002000ea
:1024d400304b88006829ef00010037006829ef00bd
:1024e4002149800080112000808f500014003400a6
:1024f400004a80000000e00011003a0021498000f9
:10250400301a2000808f50000d003c00c04980002c
:102514000000e800c0498800c1498000300620005e
:10252400808f50000700340010002000004a88000b
:102534003829ef005029ef006c29ef000100370023
:102544003829ef0021498000e01a2000808f5000d4
:102554000c003400e04980000000e800e0498800f5
:10256400e149800010032000808f500006003400f1
:1025740010002000804a88004029ef003c29ef0029
:10258400010037003c29ef0021498000900f200012
:10259400808f50000b003c00504b80000000e8008e
:1025a400504b8800514b800030062000808f500033
:1025b4000400340010002000604b88004029ef0024
:1025c4006a29ef0040498000cf80de00e7f707006a
:1025d40018c0b30002802c00f36d2400e1f707005b
:1025e4000000e00001003c000044eb000804e000af
:1025f4000c003200f04980000000e800f049880037
:10260400f1498000700c2000808f500006003400d7
:1026140010002000904a88003e29ef004229ef0074
:10262400010037003e29ef0040498000cf80de00e2
:10263400cef7070018c0b30042f32600936a2400c3
:10264400c8f707000000e00001003c000044eb0074
:102654000804e0001c003200104a80000000e00082
:1026640019003a0040498000cf80de00bff7070020
:1026740018c0b30002802c00f36d2400b7f70700e4
:102684000000e000010035000044eb000804e00015
:102694000d003200d04980000000e800d0498800d5
:1026a400d1498000700c2000808f50000700340056
:1026b40010002000104a88005229ef006229ef0020
:1026c4003a29ef00010037003a29ef004049800021
:1026d400cf80de00a5f7070018c0b30042f3260040
:1026e400936a24009df707000000e0000100350014
:1026f4000044eb000804e0000f003200504c80005e
:102704000000e0000c003a00604c80000000e8008b
:10271400604c8800614c8000f07c2000808f500069
:102724000600340010002000504c88008c29ef0073
:102734004229ef00010037008c29ef00004a800095
:10274400e10f500011003a00304880000000e00022
:102754000e003a003429ef00604980000000e800d0
:10276400604988006149800030062000808f500055
:1027740007003400100020003048880010002000ba
:10278400804988002c29ef00010037002c29ef0034
:1027940030488000e10f500004003a00c07f26005a
:1027a400604888002000200030488800104a8000db
:1027b400e10f50001a003a00611680000008200062
:1027c400008060000000e00015003200904b8000a3
:1027d4000000e00012003a0060168000680060000b
:1027e4000000e0000e003a0020498000fd0f500078
:1027f4000b003c00504a80000000e800504a88006a
:10280400514a8000700c2000808f50000500340075
:1028140010002000604a88004a29ef0001003700b8
:102824004a29ef00804b80000000e00001003a00dc
:10283400cce2a900504c8000e10f500003003a00a4
:10284400cce2a90010002000704b880030488000c2
:102854000000e0000800320061168000000820003b
:10286400008060000000e00003003200004a8000a5
:102874000000e00003003200004c8000e10f500033
:1028840003003a00cce2a90010002000704b88003d
:10289400004a80000000e0000b003a00704980000c
:1028a4000000e8007049880071498000100320008e
:1028b400808f50000500340010002000a0498800db
:1028c4002e29ef00010037002e29ef005148800027
:1028d40000052000808f5000ea003a00b04c8000d0
:1028e4000000e800b04c880040498000cf80de0042
:1028f4001ef7070018c0b300c2ac2300e36a24002b
:1029040016f707000000e000010034000044eb006b
:102914000804e0000a003200504c80000000e0008f
:1029240007003a0060168000680060000000e000c4
:1029340003003a00904b80000000e00003003200e6
:10294400d04a8000e10f500013003a00c482a8006e
:1029540040498000cf80de0004f7070018c0b300b0
:10296400c2ac2300e36a2400fcf607000000e00088
:10297400010034000044eb000804e0000a003200c7
:10298400504c80000000e00006003a0010002000d7
:10299400a04c880004003700c482a9009429ef00e9
:1029a400010037000000000040498000cf80de00b5
:1029b400eef6070018c0b30042e32600d36a2400f1
:1029c400e6f607000000e000010034000044eb00dc
:1029d4000804e0002500320040498000cf80de007a
:1029e400e2f6070018c0b30042f32600936a2400fd
:1029f400dcf607000000e00001003c000044eb00ae
:102a04000804e0001900320061168000000820006c
:102a1400008060000000e00014003200004b8000e1
:102a24000000e800004b8800014b8000900f20005c
:102a3400808f50000e003400704c80000000e800cd
:102a4400704c8800cce2a900704c8000e60f500066
:102a54000400340010002000804c88001000200086
:102a6400504c88006029ef00010037006029ef0016
:102a7400704c80000000e00014003400704c8000b2
:102a8400e60f500011003c00611680000008200091
:102a9400008060000000e0000c003a00904c8000d0
:102aa4000000e800904c8800914c8000f018200051
:102ab400808f500003003c0010002000804c8800f0
:102ac400020037009229ef009029ef00b04a8000fd
:102ad400cf80de00a5f6070018c0b300629d2b006e
:102ae400d35824009ff607000000e00001003c00da
:102af4000044eb000804e000030032001000200052
:102b0400d04a8800010037005a29ef00d04a8000db
:102b1400e10f500016003a00c04a80000000e800af
:102b2400c04a8800c14a8000f07c2000808f500099
:102b340010003400204c80000000e800204c880085
:102b4400cce2a90010002000b0498800204c80008d
:102b5400e60f50000400340010002000104c8800e0
:102b640010002000004c88005829ef0001003700b5
:102b74005829ef00d04a80000000e0000e003a001f
:102b840030488000e20f50000b003a00404c8000b7
:102b94000000e800404c8800404c8000e50f5000e5
:102ba400060034008229ef008429ef008629ef0013
:102bb4008829ef00010037008829ef00204c8000ad
:102bc4000000e00012003400204c8000e60f5000aa
:102bd4000f003c00b0498000e10f50000c003a00a7
:102be400304c80000000e800304c8800314c8000fc
:102bf400301f2000808f500003003c001000200094
:102c0400104c8800020037008629ef008229ef006b
:102c140030488000e10f500003003200e20f500002
:102c24000e0032001700370061488000c07f260084
:102c34000080400060488800904980000000e8005f
:102c440090498800904980000000e0000c003400a6
:102c540020002000304888000a00370032498000f4
:102c640004002800250a2000048fbe001e02be00b6
:102c740011000900422ad80060488800010037008a
:102c840000000000504880000000e8005048880020
:102c94005148800000052000808f5000010034005e
:102ca4000a29ef00a0498000e10f500008003a0013
:102cb4002c29ef003029ef000629ef000c29ef0042
:102cc4003229ef002e29ef006629ef006829ef0072
:102cd4008460a9000080fa002c00f9002a00f900a1
:102ce4002800f9002600f9002400f9002200f90068
:102cf4004f0478004f03be004f02be004f01be00d8
:102d04004f00be003600f900004006001800fa002b
:102d140000c8b3001902070020498000801f780012
:102d2400e0de2800801f78000e007800c4f607005b
:102d3400e48757000e00780017020700404980001e
:102d44006101b900220f9800330f9800028022001d
:102d54002e0a9000be0a900011000900422ad800f1
:102d6400c04c88004049800000017800c04c8000bd
:102d7400018022000180b9000000780000005100a9
:102d8400f04c8800f04c80006101b900220f9800db
:102d9400330f9800024020002e0a9000be0a9000d3
:102da40011000900422ad800e04c8800f04c800051
:102db40000017800e04c8000014020000180b9004f
:102dc4000000780000005100104d8800104d800074
:102dd4006101b900220f9800330f980062062000a9
:102de4002e0a9000be0a900011000900422ad80061
:102df400004d8800104d800000017800004d8000d7
:102e0400610620000180b900000078000000510034
:102e1400304d8800304d80006101b900220f9800c8
:102e2400330f9800a20020002e0a9000be0a9000e2
:102e340011000900422ad800204d880000ccb300bc
:102e4400ce010700420120008000eb000e00780054
:102e54006df60700234d8000024d8000e14c800098
:102e6400c04c8000831f7800821f7800811f780087
:102e7400801f7800f0df2800801f78000e007800a3
:102e84006ff60700ea8757000e007800c2010700ba
:102e94000080fa00000006001400fa0000c8b30025
:102ea400b6010700420120008000eb000e0078000c
:102eb40055f607001201200051e128000e007800a9
:102ec4004af607000e007800b301070000ccb300f7
:102ed400aa010700420120008000eb000e007800e8
:102ee40049f607001201200061e228000e00780074
:102ef4003ef607000e007800a70107000080fa00e4
:102f0400000006001400fa0000c8b3009b0107008b
:102f1400420120008000eb000e0078003af6070022
:102f24001201200071e328000e0078002ff607003c
:102f34000e0078009801070000ccb3008f01070051
:102f4400420120008000eb000e0078002ef60700fe
:102f54001201200061e228000e00780023f6070029
:102f64000e0078008c0107000080fa0000000600c3
:102f74001400fa0000c8b3008001070042012000d9
:102f84008000eb000e0078001ff6070012012000fd
:102f940071e328000e00780014f607000e00780094
:102fa4007d01070000ccb30074010700420120003a
:102fb4008000eb000e00780013f6070012012000d9
:102fc40081e428000e00780008f607000e0078005f
:102fd400710107000080fa00000006001400fa00e6
:102fe40000c8b30065010700420120008000eb0027
:102ff4000e00780004f607001201200091e5280075
:103004000e007800f9f507000e0078006201070051
:1030140000ccb30059010700420120008000eb00fe
:103024000e007800f8f5070012012000a1e6280040
:103034000e007800edf507000e0078005601070039
:103044000080fa00000006001400fa0000c8b30073
:103054004a010700420120008000eb000e007800c6
:10306400e9f5070012012000b1e728000e007800fe
:10307400def507000e0078004701070000ccb3001e
:103084003e010700420120008000eb000e007800a2
:10309400ddf5070012012000c1e828000e007800c9
:1030a400d2f507000e0078003b0107000080fa000b
:1030b400000006001400fa0000c8b3002f01070046
:1030c400420120008000eb000e007800cef50700de
:1030d40032012000d1e928000e007800c3f5070072
:1030e4000e0078002c01070000ccb3002301070078
:1030f400420120008000eb000e007800c2f50700ba
:103104001201200001eb28000e007800b7f507003b
:103114000e007800200107000080fa00000006007d
:103124001400fa0000c8b300140107004201200093
:103134008000eb000e007800b3f5070012012000b8
:1031440011ec28000e007800a8f507000e007800a6
:103154001101070000ccb300080107004201200060
:103164008000eb000e007800a7f507001201200094
:1031740021ed28000e0078009cf507000e00780071
:10318400050107000080fa00000006001400fa00a0
:1031940000c8b300f9000700420120008000eb00e2
:1031a4000e00780098f507001201200031ee280087
:1031b4000e0078008df507000e007800f600070079
:1031c40000ccb300ed000700420120008000eb00ba
:1031d4000e0078008cf507001201200041ef280052
:1031e4000e00780081f507000e007800ea00070061
:1031f4000080fa00000006001400fa0000c8b300c2
:10320400de000700420120008000eb000e00780081
:103214007df507001201200051f028000e0078000f
:1032240072f507000e007800db00070000ccb30045
:10323400d2000700420120008000eb000e0078005d
:1032440071f507001201200061f128000e007800da
:1032540066f507000e007800cf0007000080fa0032
:10326400000006001400fa0000c8b300c300070001
:10327400420120008000eb000e00780062f5070098
:103284001201200071f228000e00780057f50700a3
:103294000e007800c000070000ccb300b7000700a0
:1032a400420120008000eb000e00780056f5070074
:1032b4001201200081f328000e0078004bf507006e
:1032c4000e007800b40007000080fa000000060039
:1032d4000000fa0010c0b300a800070080ff280017
:1032e400410020005502070000c3b300a3000700fb
:1032f40040e6250011002000500207009700070057
:1033040060a62300010020004c0207009300070080
:1033140060a6230001002000480207008f00070078
:1033240060a62300010020004402070000c2b3008d
:10333400920007008900070080c2b3008f000700d5
:1033440000c1b3008d000700f0c0b3008b0007007c
:10335400c0c0b3008900070060c0b3008700070045
:103364000080fa00000006000200fa00004f780016
:103374001e417800019b2000824878001e80fb00db
:103384004700de0000407800614060000080fb00e0
:10339400610060004300dd002216800071ff2f00f1
:1033a4008100610001007000201688001e80fb006f
:1033b4004600de000040780061406000614060002b
:1033c400614060000080fb00610060004200dd009d
:1033d40022168000b1ff2f008100610001007000ff
:1033e400201688001e80fb004500de0000407800a7
:1033f4006140600061406000614060000080fb004b
:10340400610060004800dd0062168000f1ef2f00cb
:103414008100610001007000601688001e80fb00be
:103424004400de00004078006140600061406000bc
:10343400614060000080fb00610060004900dd0025
:1034440062168000f1df2f0081006100010070002e
:1034540060168800410007009e407800400020006c
:103464000008dd00b0e9b7009e407800400020006d
:103474000008dd00004f78001e80fb004700de00de
:1034840000407800614060000080fb006100600043
:103494004300dd002216800071ff2f0081006100cf
:1034a40001007000201688001e80fb004600de002c
:1034b400004078006140600061406000614060004d
:1034c4000080fb00610060004200dd0022168000e5
:1034d400b1ff2f00810061000100700020168800f8
:1034e4001e80fb004500de00004078006140600063
:1034f40061406000614060000080fb00610060008a
:103504004800dd0062168000f1ef2f0081006100a9
:1035140001007000601688001e80fb004400de007d
:1035240000407800614060006140600061406000dc
:103534000080fb00610060004900dd00621680002d
:10354400f1df2f0081006100010070006016880027
:10355400020007000080fa00000006000000fa00e4
:10356400cd42a8005018210001002000b30107003b
:10357400cd42a9000080fa00000006000200fa0013
:10358400004f7800cd62a9001e40780076ff070046
:103594000080fa00000006000200fa00000f780024
:1035a400cd62a800070037001e00780010407800a4
:1035b400b0e9b7001e007800104078006aff0700e9
:1035c4001e0fe8001e007800104078000004e000a0
:0c35d400f5ff3a000080fa00000006003d
:020000040000fa
:1035e000b009000002000000000000000008000018
:1035f000000100000200000000004800068c0c00e2
:10360000c812f900181a1f0028251f002bfc3000d3
:10361000ba3656003cce41001d4740004c335100a5
:10362000f55582005ad75e00f262cf00666d6a00df
:10363000ca6de20070b5730041768400787d7a002f
:10364000297c8a007d9d7e00627fd8007fff7f00fd
:10365000d87f62007f9d7e008a7d29007c7d7a0074
:103660008478410076b57300e270ca006d6d6a001f
:10367000cf66f20062d75e00825af50055335100e2
:10368000404c1d0047ce4100563cba0036fc30008d
:103690001f2b2800251a1f00f918c800128c0c00d7
:1036a0004806000000b8f90074f33800ed07e700a1
:1036b000e6e0d800dae1d40004cf4600c9aac3008e
:1036c00032bee300b8c0b300cdae0b00aa7ea500a9
:1036d00029a10e009d31990093953600921e8f000e
:1036e0004b8cbf00897c87008385d700837682005e
:1036f00063819e008028800001802800809e8000d9
:103700006381760082d7830083857c0087bf890030
:103710004b8c1e008f36920093953100990e9d00c0
:1037200029a17e00a50baa00cdaec000b3e3b8006e
:1037300032beaa00c346c90004cfe100d4d8da00e3
:10374000e6e00700e738ed0074f3b800f900000088
:10375000b2090000020000000200000001000000a9
:10376000a80900000400000000000000000900009b
:103770009800000000000000ac09000004000000f8
:1037800002000000fa00fa000000000098090000a2
:103790001000000000000000d60900001a00000020
:1037a00002000000686a6c00747a4c00000001009e
:1037b00000020000040008000010000000002000cb
:1037c0002b2d230030000000b4090000220000006f
:1037d0000200000030313200333435003637380013
:1037e0003941420043444500460030003132330045
:1037f000343536003738390061626300646566002d
:08380000000000003c1e8000e6
:020000040000fa
:103808000000fa00a7000700fb000700c50007003a
:1038180020002800000e880030032000400e880099
:1038280073000700a9fe0700de000700c482a90094
:103838000100370000000000904d8000e10f5000ab
:1038480005003a0086fe070000ce2300811c2000f8
:10385800f9000700b229ef00b14c80006009200090
:10386800808f50000200340098fe07009629ef0070
:10387800604a8000e10f500012003200d04a8000f8
:10388800e10f50000f003200004c8000e10f5000a3
:103898000c003200a04c8000e10f500009003200fb
:1038a800804b80000000e00006003200504c800091
:1038b800e10f500003003200104b8000e10f500070
:1038c80002003a0010002000010037000000eb0061
:1038d800504d8800504d80000000e00012003a0072
:1038e80009fd070000e72100410e2000d200070073
:1038f80060168000680060000000e00005003200eb
:10390800b5fd070000e72100410e2000ca000700ae
:10391800c9ff3700cbfd070000e72100410e20005a
:10392800c5000700c4ff3700604a8000e10f50005f
:1039380004003a0057fd070000e72100410e20006f
:10394800bd000700004c8000e10f500004003a0061
:103958006bfd070000e72100410e2000b6000700bc
:10396800d04a8000e10f500004003a007ffd0700b4
:1039780000e72100410e2000af000700804b8000c7
:103988000000e00004003a00c9fd070000e721003c
:10399800410e2000a8000700504c8000e10f5000a5
:1039a80004003a00ddfd070000e72100410e200079
:1039b800a1000700a04c8000e10f500004003a006d
:1039c800f1fd070000e72100410e20009a000700e2
:1039d800904a8000e10f500096ff3a0005fe07006c
:1039e80000e72100410e20009300070092ff3700f6
:1039f8000000fa00001980000080a1000090a100da
:103a080000198800001980000050a0000060a00084
:103a18000070a100001988002043a80025e3a90030
:103a280021198000f00f2e00008060002019880006
:103a38002463ef000080eb00601988002c03a900c4
:103a48002c23a9002c43a9002c63a90085a0a90058
:103a580095a0a80021e3a8001119800030f82f00d4
:103a680000806000c000b3001019880010198000a1
:103a78000080a1000090a100101988002223a9004d
:103a88002203a9002343a80028e3a9003003a800c3
:103a98003023a8003043a8003063a8000080fa0053
:103aa800000006000000fa00f0012000403a8800fb
:103ab8001200200080072000a10920003374200094
:103ac80080497800814978008249780012002000f6
:103ad80060042000710520002374200080497800cc
:103ae800814978008249780000000000113a80007e
:103af800000027008080600000002100808f5000b7
:103b0800faff3a0000000000113a8000000220008d
:103b1800008060000000e000fbff32000080fa0037
:103b2800000006000000fa00c8a2a800c8c2a90048
:103b3800ccc2a800c982a900c9a2a900c9c2a9000b
:103b4800c9e2a900c221ef00b02e2000200e880093
:103b5800b02e2000300e880020002000500e880073
:103b680000012000600e8800ce21ef0000f823003d
:103b7800800e880000f82300900e8800f0f32300e0
:103b8800a00e8800e0012000b00e8800e0012000af
:103b9800c00e88008b20a9009b20a8000080fa0096
:103ba800000006000000fa0005e1a9000421a900b0
:103bb80004c1a900200880000040a1000050a10015
:103bc800200888000021ef0090e9200010088800f4
:103bd8002005800000c0a00000d0a10000e0a100e6
:103be800200588008460a9009460a80005e1a80069
:103bf8000080fa00000006000000fa002ca3a800cc
:103c08002c83a800c842a800c862a800c8c2a9009e
:103c1800c8e2a900c082a900c902a900c922a90056
:103c2800c942a900c962a900c062a900c042a9008e
:083c38000080fa000000060004
:020000040000fa
:103c4000f03fb1000180b10006003500ee0309002d
:103c500000000000403fb1000180b100fbff3d00cb
:103c60001000b000203fb0000200350000800900c5
:083c7000000000000000060046
:020000040000fa
:043c78000000000048
:020000040000fa
:0457f8004fb80000a6
:020000040000fa
:0457fc007f3d0000ed
:00000001FF
